:020000040800F2
:10000000A81F0020DD010008CB1A0008F116000827
:10001000C91A00086D020008112000080000000045
:100020000000000000000000000000004501000882
:10003000710200080000000089010008E51A0008AC
:10004000F7010008F7010008F7010008F7010008B0
:10005000F7010008F7010008F7010008F7010008A0
:10006000F7010008F7010008F7010008F701000890
:10007000F7010008F7010008F7010008F701000880
:10008000F7010008F7010008F7010008F701000870
:10009000F7010008F7010008F7010008F701000860
:1000A000F7010008F7010008F7010008F701000850
:1000B000F7010008F7010008F7010008F701000840
:1000C000F7010008F7010008F7010008F701000830
:1000D000F7010008F7010008F701000805200008F3
:1000E000F7010008F7010008F7010008F701000810
:1000F000F7010008F7010008F7010008F701000800
:10010000F7010008F7010008F7010008F7010008EF
:10011000F7010008F7010008F7010008511B00086B
:10012000F7010008F7010008F7010008F7010008CF
:10013000DFF80CD000F088F8004800475120000894
:10014000A81F0020224B19680868B0E8F00F80F360
:100150000988BFF36F8F4FF0000080F311884EF0D5
:100160000D0E70470000000006480068006880F32C
:10017000088862B661B6BFF34F8FBFF36F8F00DFA1
:1001800000BF00BF08ED00E0EFF30980BFF36F8F01
:100190000F4B1A6820E9F00F106008B54FF05000BF
:1001A00080F31188BFF34F8FBFF36F8F02F018FFFA
:1001B0004FF0000080F31188BDE808401968086816
:1001C000B0E8F00F80F30988BFF36F8F704700BF6E
:1001D00024000020EFF305807047000006488047A8
:1001E00006480047FEE7FEE7FEE7FEE7FEE7FEE71C
:1001F000FEE7FEE7FEE7FEE74F1B000831010008BF
:1002000040EA01039B0703D009E008C9121F08C098
:10021000042AFAD203E011F8013B00F8013B521E18
:10022000F9D27047D2B201E000F8012B491EFBD28F
:1002300070470022F6E710B513460A4604461946F1
:10024000FFF7F0FF204610BD064C074D06E0E068C2
:1002500040F0010394E8070098471034AC42F6D30D
:10026000FFF76AFF7C3B00089C3B0008FEE77047F5
:10027000704700002DE9F05F90F82110002402295A
:1002800003D004218163012485E001680A6822F01B
:100290000E020A6001680A6822F001020A603F4EFD
:1002A0003E4FB215DFF8F4C0DFF8F090DFF8ECA0B5
:1002B000DFF8E8B0DFF8E4E00168783F13011502E9
:1002C000ACF1640CA9F15009AAF13C0AABF1280B7E
:1002D000AEF1140E4FF48018B14227D9B9420ED0B6
:1002E000614512D049451DD0514518D0594518D007
:1002F000714501D1424615E0294EB14201D101229A
:1003000010E0274E1436B14201D110220AE0244EEB
:100310002836B14206D0224A3C32914201D11A46D7
:1003200000E02A461E49091F0A602BE0B94213D09B
:10033000614517D0494522D051451DD059451DD0A2
:10034000714501D142461AE0B14202D14FF08072AC
:1003500015E0134EB14201D1012210E0104E1436C7
:10036000B14201D110220AE00D4E2836B14206D02A
:100370000B4A3C32914201D11A4600E02A46074915
:1003800080394A60012180F82110002180F8201076
:10039000416B01B188472046BDE8F09F80000240D4
:1003A000080402402DE9F84FDFF8C891002409F154
:1003B000040A0AF1040B23460F270BF1040ED1E0C7
:1003C0000125A54006EA0502AA4276D1DFF8A8C1B8
:1003D0004E68A6EB0C0866452BD00DDC032E34D0FE
:1003E00005DC36B3012E19D0022E2FD11BE0112EC1
:1003F00016D0122E2AD119E0B8F5881F19D006DCC4
:10040000B8F5803F15D0B8F5801F1FD111E0B8F5C1
:10041000001F0ED0B8F5041F18D10AE0CB6815E014
:10042000CB681B1D12E0CB6808330FE0CB680C33A0
:100430000CE08B682BB1012B4FF0080303D0456112
:1004400004E0042302E0056100E00023FF2A01D854
:10045000064601E000F104064FEA840501D9A5F142
:100460002005D6F8008007FA05FC28EA0C0803FAF4
:1004700005F548EA0508C6F800804D68ED0070D51E
:100480003E4DAE6946F00106AE61AD6924F003064B
:1004900005F0010500953A4D06EB050CDCF8085017
:1004A000A607360F07FA06F825EA0805DFF8D48014
:1004B000404503D14FF0000825E052E0DFF8C88046
:1004C000404502D14FF001081DE0DFF8C0804045F3
:1004D00002D14FF0020816E0DFF8B480404502D1A7
:1004E0004FF003080FE0DFF8AC80404502D14FF039
:1004F000040808E0DFF8A080404502D14FF005086D
:1005000001E04FF0060808FA06F848EA0508CCF8BA
:1005100008804D68D9F80060ED034D4601D51643BB
:1005200000E096432E604D68DAF80060AD03554652
:1005300001D5164300E096432E604D68DBF800605D
:10054000ED025D4601D5164300E096432E604D68EE
:10055000DEF80060AD02754601D5164300E0964313
:100560002E60641C0A681646E2407FF429AFBDE89D
:10057000F88F00000004014000001110001002403C
:100580000000014000080140000C01400010014043
:100590000014014000180140001C01400AB1016133
:1005A00070470904FBE700000148806870470000BD
:1005B000140000200248816802781144816070476D
:1005C00014000020074810B5016841F010010160D7
:1005D000032000F095F8002000F006F800F03EF847
:1005E000002010BD0020024000B5014687B0002267
:1005F000372000F065F8372000F054F81348C1693F
:1006000041F02001C161C06905A900F020000690F9
:10061000684600F01DF900F03BF90D490D4AB0FBAA
:10062000F1F10D48491E0260416040F2E7320021BD
:10063000C0E90321816000F07BFB10B1012007B00D
:1006400000BD054800F00EFCF9E700000010024074
:1006500040420F00001400408C0200200F4808B5F3
:10066000816941F001018161816901F0010100911D
:10067000C16941F08051C161C069002200F0805021
:1006800000900F21901E00F01BF80548416821F0F2
:10069000E06141F08061416008BD0000001002404F
:1006A00000000140002809DB00F01F0201219140F9
:1006B0004009800000F1E020C0F800117047000000
:1006C000F0B40E4B1B680C46C3F30223C3F10705BD
:1006D000042D00D90425191D072901D2002300E0AB
:1006E000DB1E012606FA05F1491E214099409E4075
:1006F000761E16403143F0BC01F08BBC0CED00E0DF
:10070000064900F0070208684FF6FF03184040EA68
:100710000220034A10430860704700000CED00E01F
:100720000000FA052DE9F0470F46050061D0434E61
:10073000306800F00700B84209D2306820F00700A6
:1007400038433060306800F00700B84251D1286863
:100750003B4C810712D5400703D5606840F4E06048
:1007600060602878000703D5606840F460506060DE
:100770006068A96820F0F000084360602878C0072E
:1007800028D06868012810D02168022810D0890775
:1007900000292EDA616821F0030101436160FFF74F
:1007A00003FF804641F288390DE021688903EFE7B5
:1007B0008901EDE7FFF7F8FEA0EB0801494502D9F2
:1007C0000320BDE8F0876068696800F00C00B0EBBA
:1007D000810FEFD1306800F00700B8420BD93068C4
:1007E00020F0070038433060306800F00700B8425E
:1007F00001D00120E5E72878400705D56068E96861
:1008000020F4E060084360602878000706D560683F
:10081000296920F4605040EAC100606000F058F897
:100820006168084AC1F30311515CC8400649086079
:1008300006480068FFF7D8FE0020C2E7002002400B
:1008400000100240283B0008200000201800002073
:100850000F2202600C4A536803F00303436053689D
:1008600003F0F0038360536803F4E063C3605268ED
:100870004FF4E06303EAD20202610448006800F02A
:10088000070008607047000000100240002002408E
:100890000448054900684968044AC1F30221515CD3
:1008A000C84070472000002000100240383B00087C
:1008B0000448054900684968044AC1F3C221515CF3
:1008C000C84070472000002000100240383B00085C
:1008D00012A185B00FC98DE80F0014A0144A00685A
:1008E00004905168134801F00C03042B10D0082B1E
:1008F0000ED1C1F38343C9031DF803000AD5516823
:1009000004AAC1F34041515C0A4A5043B0FBF1F0E4
:1009100005B0704708494843FAE7000002030405A0
:10092000060708090A0B0C0D0E0F1010010200003B
:100930000010024000127A0000093D002DE9F84F36
:10094000040070D02078C04DC00749D06868C0F35B
:100950008100012807D06868C0F38100022809D10E
:100960006868C00306D52868800339D56068002808
:10097000E7D035E06068B0F5803F0BD010B1B0F53E
:10098000A02F11D0286820F480302860286820F437
:10099000802002E0286840F480302860606890B1D0
:1009A000FFF702FE06460AE0286840F4802028602F
:1009B000F0E700BFFFF7F8FD801B642873D82868B4
:1009C0008003F7D50CE0FFF7EFFD064605E000BF1A
:1009D000FFF7EAFD801B6428F0D828688003F7D46D
:1009E00020789A4E80074FF001094FF0000839D562
:1009F000686810F00C0F07D06868C0F38100022807
:100A000009D16868C00306D42868800714D5206916
:100A1000012808D110E02069B0B1C6F80090FFF7B6
:100A2000C3FD074605E00AE1FFF7BEFDC01B022833
:100A3000C4D828688007F7D52868616920F0F800D5
:100A400040EAC10028600DE0C6F80080FFF7ACFD69
:100A5000074604E0FFF7A8FDC01B022823D828683A
:100A60008007F7D4207800072CD57948A169D9B13F
:100A7000C0F80090FFF798FD074604E0FFF794FDEB
:100A8000C01B02280FD8686A8007F7D571484FF459
:100A9000FA510068B0FBF1F0009000BF0098411ED1
:100AA0000091FAD20EE080E0C0F80080FFF77CFDF4
:100AB000074604E0FFF778FDC01B022875D8686A76
:100AC0008007F7D42078400760D5E8690027C00088
:100AD00008D4E86940F08050E861E869012700F037
:100AE000805000905C480168C90513D401688346B2
:100AF00041F480710160FFF757FD824606E000BFB8
:100B0000FFF752FDA0EB0A0064284ED8DBF8000086
:100B1000C005F5D5E06801280AD008B1052813D032
:100B2000286A20F001002862286A20F0040002E010
:100B3000286A40F001002862E06841F2883B98B1E1
:100B4000FFF732FD82460BE0286A40F0040028627D
:100B5000EEE700BFFFF728FDA0EB0A0159455AD880
:100B6000286A8007F6D50CE0FFF71EFD824605E0F7
:100B7000FFF71AFDA0EB0A0159454CD8286A8007F7
:100B8000F6D41FB1E86920F08050E861E06988B3CD
:100B90006968C1F38101022944D00228C6F8608047
:100BA00004D0FFF701FD044638E034E0FFF7FCFC19
:100BB000074604E0FFF7F8FCC01B02282BD8286882
:100BC0008001F7D4206AB0F5803F05D16868A1683C
:100BD00020F4003008436860D4E9080108436968DC
:100BE00021F4741108436860C6F86090FFF7DCFCDC
:100BF000044606E025E000BFFFF7D6FC001B0228F4
:100C000009D828688001F7D51BE000BFFFF7CCFCAE
:100C1000001B022802D90320BDE8F88F2868800154
:100C2000F4D40EE00128F7D06868226A00F480311D
:100C3000914204D1616A00F47010884201D0012011
:100C4000EAE70020E8E7000000100240000042420E
:100C5000800442422000002000700040704770472E
:100C600010B590F83C20012A22D0012280F83C20C7
:100C7000CA688C6822F4407222434C6822F4806275
:100C800022430C6822F4006222430C6922F4805251
:100C900022434C6922F400522243C969002322F402
:100CA00080420A4301684A6480F83C30002010BD4D
:100CB000022010BD70B590F83C20012A2CD00124F0
:100CC00080F83C40022280F83D2003685A689D6805
:100CD00022F070060A6832435A60104B02689A424A
:100CE0000ED00F4B9A420BD0B2F1804F08D00D4B73
:100CF0009A4205D00C4B9A4202D00C4B9A4204D136
:100D0000496825F080031943916080F83D40002137
:100D100080F83C10084670BD022070BD002C0140D8
:100D2000003401400004004000080040000C004076
:100D300010B5040003D094F83D0010B107E0012085
:100D400010BD002084F83C00204600F01FF802206F
:100D500084F83D00211D206800F000FF012084F888
:100D6000460084F83E0084F83F0084F8400084F890
:100D7000410084F8420084F8430084F8440084F879
:100D8000450084F83D00002010BD000000B585B08E
:100D9000002100910191029103912B4A01682B4897
:100DA000914218D1816941F400618161816901F446
:100DB00000610491816941F00401816180696946A3
:100DC00000F0040004904FF4407000902048FFF7BA
:100DD000E9FA05B000BDB1F1804F0BD01D4A914238
:100DE00010D1C16941F00201C161C06900F0020087
:100DF0000490EEE7C16941F00101C161C06900F0F2
:100E00000100F5E7144A914207D1C16941F004019C
:100E1000C161C06900F00400EAE7104A914207D1BD
:100E2000C16941F00801C161C06900F00800DFE755
:100E30000B4A9142CDD1816941F4005181618069B1
:100E400000F40050D4E70000002C014000100240E4
:100E5000000801400004004000080040000C004071
:100E60000034014090F83D10012901D00120704765
:100E7000022180F83D100168CA6842F00102CA6090
:100E800000680E4988420ED00D4988420BD0B0F15F
:100E9000804F08D00B49884205D00B49884202D0C8
:100EA0000A49884204D1816801F00701062903D06C
:100EB000016841F00101016000207047002C0140F1
:100EC000003401400004004000080040000C0040D5
:100ED00070B5044690F83C00012817D0012584F82D
:100EE0003C50022084F83D002068826822F077029E
:100EF00022F47F4282600868502830D00DDC202820
:100F00004DD005DC98B310283BD148E0022070BDDD
:100F1000302844D0402834D139E0602828D07028C7
:100F200006D0B0F5805F2CD0B0F5005F29D10AE083
:100F3000CB68D1E90121206800F056FE2068816865
:100F400041F0770109E0CB68D1E90121206800F088
:100F50004BFE2068816841F48041816011E0CA68DD
:100F60004968206800F014FF5021206807E016E06F
:100F7000CA684968206800F053FF6021206800F0CB
:100F80003DFE84F83D50002084F83C0070BDCA68E6
:100F90004968206800F0FCFE40212068EFE72268E5
:100FA00001461046EBE770472DE9F041054690F801
:100FB0003C000C46012836D0012085F83C008AB35D
:100FC000042A42D02868082A51D0D4E90023E168D5
:100FD000066A26F480560662C669076A26F44076D9
:100FE00046EA03234FF6FF7606EA013123F4704305
:100FF00019434FF4005627F4005306EA02321A430D
:10100000C16102622868C16921F44061C161286838
:10101000C169A26841EA0221C161002085F83C0053
:10102000BDE8F08101E00220FAE7D4E90012E368AC
:10103000286800F0BFFE2868816921F00C018161F9
:1010400028688169A26811430FE0D4E90012E368BF
:10105000286800F0F7FE2868816921F44061816109
:1010600028688169A26841EA02218161D5E7D4E953
:101070000027267B016A21F480710162C169036A3D
:1010800021F00301394321F0F00731074FF40076D6
:1010900047EA116123F4007306EA02221A43C16190
:1010A00002622868C16921F00C01C1612868C16928
:1010B000A2681143B0E710B5040003D094F83D00D6
:1010C00010B107E0012010BD002084F83C0020464C
:1010D00000F01EF8022084F83D00211D206800F079
:1010E0003DFD012084F8460084F83E0084F83F006E
:1010F00084F8400084F8410084F8420084F84300FA
:1011000084F8440084F8450084F83D00002010BDB8
:10111000704770B50446006801694FF00005C94387
:10112000890715D4C168C943890711D4E91E016133
:1011300001202077206880698007204602D0FFF7D1
:1011400032FF04E000F006F9204600F095F925771B
:1011500020680169C943490717D4C168C9434907D1
:1011600013D46FF0040101610220207720688069A8
:1011700010F4407F204602D0FFF715FF04E000F096
:10118000E9F8204600F078F9257720680169C9431D
:10119000090716D4C168C943090712D46FF00801C2
:1011A0000161042020772068C0698007204602D0B2
:1011B000FFF7F9FE04E000F0CDF8204600F05CF9FE
:1011C000257720680169C943C90617D4C168C94396
:1011D000C90613D46FF01001016108202077206840
:1011E000C06910F4407F204602D0FFF7DCFE04E027
:1011F00000F0B0F8204600F03FF92577206801693B
:10120000C943C90708D1C168C943C90704D1891EA8
:101210000161204600F032F920680169C9430906DE
:1012200009D4C168C943090605D46FF08001016182
:101230002046FFF713FD20680169C943490609D418
:10124000C168C943490605D46FF0400101612046D9
:1012500000F01EF920680169C94389060BD4C168F2
:10126000C943890607D46FF0200101612046BDE81B
:101270007040FFF7F4BC70BD10B586B0002100913E
:1012800001910291039103682A4902222A48B3F18D
:10129000804F13D0294CA3421AD18B6943F0040329
:1012A0008B61896901F0040104914021CDE90012AC
:1012B00069460392FFF776F806B010BD8B6943F0DC
:1012C00004038B61896901F0040104910121EDE7B8
:1012D0001B4CA3420ED1886940F0080088618869E0
:1012E000694600F008000490C020CDE900021548CE
:1012F0000392DFE7144CA34209D18B6943F0040346
:101300008B61896901F0040104910621CEE70F4841
:101310008342D1D1886940F01000886188696946AC
:1013200000F0100004904FF4E070CDE9000208488E
:101330000392BFE700100240000801400004004093
:1013400000080040000C0140000C00400034014047
:1013500000100140704770B5044690F83C000D46FF
:1013600001280AD0012084F83C0042B1042A18D098
:10137000082A2AD00C2A4DD139E0022070BD2068FD
:1013800000F044FC2068816941F008018161206817
:10139000816921F004018161206881692A69114312
:1013A00011E0206800F062FC2068816941F400616E
:1013B00081612068816921F480618161206881698F
:1013C0002A6941EA0221816124E0206800F084FC5E
:1013D0002068C16941F00801C1612068C16921F03C
:1013E0000401C1612068C1692A69114311E02068C4
:1013F00000F0A6FC2068C16941F40061C161206869
:10140000C16921F48061C1612068C1692A6941EA2A
:101410000221C161002084F83C0070BD10B50400B9
:1014200003D094F83D0010B107E0012010BD00206A
:1014300084F83C00204600F01EF8022084F83D00AD
:10144000211D206800F08AFB012084F8460084F802
:101450003E0084F83F0084F8400084F8410084F89E
:10146000420084F8430084F8440084F8450084F87E
:101470003D00002010BD7047704700000068034920
:10148000884201D1FFF796B8704700000014004071
:101490007047704770B5026804461068D168536998
:1014A00010F00F0F52D003F0010501F490762E4397
:1014B0005FD0C20705D0CA0503D5E26B42F0010236
:1014C000E263420705D5DA0703D0E26B42F002027D
:1014D000E263820705D5DA0703D0E26B42F004022B
:1014E000E263020707D501F020022A4303D0E26B32
:1014F00042F00802E263E26B002A33D0800604D592
:10150000880602D5204600F0DAFC20684069E16BCD
:10151000C0F38010090700D428B3204600F0C1FCB6
:101520002068416949061AD5416921F040014161AD
:10153000606BA0B12D494163606BFEF79BFE0028F4
:1015400010D0606B416BBDE870400847830610D532
:101550008B060ED52046BDE8704000F0B0BC20469A
:10156000FFF797FF70BD2046FFF793FF0020E06371
:1015700070BD03062BD50B0629D594F83900212818
:10158000F6D1A068B0F5805F01D12069B0B1206AC2
:10159000411C2162216800784860E08C401E0004F4
:1015A000000CE084E4D12068C16821F08001C160B2
:1015B0002068C16841F04001C16070BD206A0088A8
:1015C000C0F308005060206A801C2062E5E74006F6
:1015D000F3D54806F1D5D168204621F04001D1600D
:1015E000202184F8391000F082F870BD931E0008A5
:1015F00070B5040004D094F83900002510B106E05D
:10160000012070BD84F83850204600F023F82420D3
:1016100084F839002068C16821F40051C160204677
:1016200000F094FC2068016921F490410161206878
:10163000416921F02A0141612068C16841F40051EB
:10164000C160E563202084F8390084F83A00002066
:1016500070BD000030B585B0002400940194029460
:10166000039400681D49884235D11D48C16941F481
:101670008021C161C16901F480210491816941F037
:10168000100181618069174D00F0100004904FF443
:101690008060009002200190032003906946284654
:1016A000FEF780FEE814CDE900046946284602945E
:1016B000FEF778FE0C48416821F0300141F0E0610E
:1016C00041F010014160002205212720FEF7F8FFBC
:1016D0002720FEF7E7FF05B030BD000000480040BE
:1016E00000100240001001400000014070477047A8
:1016F000FEE700002DE9F04385B00024294800945E
:10170000019402940394816941F02001816181690F
:1017100001F020010491816941F004018161816936
:1017200001F004010491816941F00801816181693E
:1017300001F008010491816941F010018161806923
:10174000DFF8648000F0100004900022042140467D
:10175000FEF724FFDFF854904FF44077002239461B
:101760004846FEF71BFF47F20300CDE90004694637
:1017700048460294FEF716FE042001250226CDE914
:101780000005CDE9024669464046FEF70BFE00978C
:101790000396CDE9015469464846FEF703FE05B0BD
:1017A000BDE8F0830010024000140140000C01402D
:1017B00010B58AB000241C4804940594069407943C
:1017C0000894099400940194029416490394C0E982
:1017D00000148460C460046144618461FFF7A8FA66
:1017E0004FF48050049004A90F48FFF771FB0E4896
:1017F000FFF761FC089408A90B480994FFF75AFA0F
:101800000120CDE900400294002269460648039475
:10181000FFF7CAFB042269460348FFF7C5FB0AB07D
:1018200010BD0000002C01409C00002010B58EB0BF
:1018300000240794089409940A940B941C21684688
:101840000C94FEF7F6FC15484FF08041C0E90014F7
:101850008460C46004618461FFF76AFA4FF48050C9
:10186000079007A90D48FFF733FB0C48FFF7D6FD9B
:101870000B940BA909480C94FFF71CFA6020CDE9E2
:10188000000402940022694604480494FFF763FDB3
:101890000248FFF7F1FC0EB010BD0000E40000208C
:1018A00010B58EB000240794089409940A940B9400
:1018B0001C2168460C94FEF7BCFC15481349C0E98E
:1018C00000148460C46004618461FFF731FA4FF44E
:1018D0008050079007A90E48FFF7FAFA0C48FFF767
:1018E0009DFD0B940BA90A480C94FFF7E3F96020C7
:1018F000CDE9000402940022694605480494FFF7EC
:101900002AFD0348FFF7B8FC0EB010BD00040040EC
:101910002C01002010B58EB000240794089409947F
:101920000A940B941C2168460C94FEF782FC18481C
:101930001649C0E900148460C46004618461FFF743
:10194000F7F94FF48050079007A91148FFF7C0FA44
:101950000F48FFF763FD0B940BA90D480C94FFF79C
:10196000A9F96020CDE900040294002269460848E4
:101970000494FFF7F0FC042269460548FFF7EBFCEE
:101980000348FFF779FC0EB010BD000000080040CE
:101990007401002010B58EB00024079408940994B7
:1019A0000A940B941C2168460C94FEF742FC1848DC
:1019B0001649C0E900148460C46004618461FFF7C3
:1019C000B7F94FF48050079007A91148FFF780FA44
:1019D0000F48FFF723FD0B940BA90D480C94FFF75C
:1019E00069F96020CDE900040294042269460848A0
:1019F0000494FFF7B0FC082269460548FFF7ABFCEA
:101A00000348FFF739FC0EB010BD0000000C004089
:101A1000BC01002010B596B000240F9410941194CE
:101A2000129413941C2168461494FEF702FC2021A2
:101A300007A8FEF7FEFB23482149C0E90014846093
:101A4000C460046144618461FFF772F94FF480500F
:101A50000F900FA91B48FFF73BFA1A48FFF7DEFC6F
:101A6000139413A917481494FFF724F96020CDE9C3
:101A700000040294039404940594002269461148DA
:101A80000694FFF768FC042269460E48FFF763FCE2
:101A9000082269460B48FFF75EFC079408940994F6
:101AA0004FF400500A94CDE90B4007A905480E9465
:101AB000FFF7D6F80348FFF7DFFB16B010BD0000B4
:101AC0000034014004020020FEE77047012000F0CE
:101AD00019FBFBE7012000F015FBFBE7012000F0FC
:101AE00011FBFBE710B5502080F31188BFF34F8F37
:101AF000BFF36F8F01F0FEFD18B104494FF0805025
:101B00000860002080F3118810BD000004ED00E0A3
:101B100030B58FB028216846FEF78BFB14210AA848
:101B2000FEF787FB01252804CDE900500024079427
:101B30006846FEF703FF0F200A90CDE90B540D9481
:101B400000210AA80E94FEF7EDFD0FB030BD7047DE
:101B50000148FFF7DEBA00008C020020F0B50268F1
:101B60001C4B1D4D1D4E1E4F1E4C4FF0804C98427D
:101B700009D0A04207D0604505D0A84203D0B042AA
:101B800001D0B84204D122F0700E4A6842EA0E0237
:101B9000984209D0A04207D0604505D0A84203D0A2
:101BA000B04201D0B84203D122F44075CA682A433A
:101BB0004D6922F080022A4302608A68C2620A6884
:101BC0008262984201D0A04201D1096901630121DA
:101BD0004161F0BD002C01400004004000080040BD
:101BE000000C00400034014010B5846842EA032232
:101BF00024F47F440A432243826010BD826822F0AD
:101C000070020A4342F0070181607047F0B5026A32
:101C100022F001020262036A42688469124E24F0D3
:101C200073050C682C4323F002058B682B430D4D84
:101C3000A84201D0B04205D123F00807CB683B434E
:101C400023F00403A84201D0B04205D14D6922F42B
:101C5000407215438A692A4342608461496841633E
:101C60000362F0BD002C014000340140F0B5026A6F
:101C700022F010020262026A436884690D6824F44B
:101C8000E64444EA05248D6822F0200242EA051267
:101C90000F4D104EA84201D0B04206D1CF6822F0BD
:101CA000800242EA071222F04002A84201D0B0426C
:101CB00007D14D6923F4406343EA85038D6943EA04
:101CC000850343608461496881630262F0BD00005E
:101CD000002C014000340140F0B5026A22F4807209
:101CE0000262026A4368C46922F4007224F0730538
:101CF0000C68124E2C438D6842EA05220E4DA84214
:101D000001D0B04206D1CF6822F4006242EA072235
:101D100022F48062A84201D0B04207D14D6923F479
:101D2000405343EA05138D6943EA05134360C461D8
:101D30004968C1630262F0BD002C014000340140DB
:101D400030B5026A22F480520262046A4268C369B2
:101D50000D6823F4E64343EA05238D6824F4005418
:101D600044EA0534084DA84202D0084DA84204D1E7
:101D70004D6922F4804242EA85124260C36149689B
:101D80000164046230BD0000002C014000340140B9
:101D900010B5036A046A24F001040462846924F023
:101DA000F00444EA021423F00A020A438461026246
:101DB00010BD000070B5046A24F001040462846957
:101DC000056A124EB0420ED0114EB0420BD0B0F1A7
:101DD000804F08D00F4EB04205D00F4EB04202D017
:101DE0000E4EB04203D124F00304144301E044F04A
:101DF00001041A0724F0F00444EA126225F00A03F1
:101E000001F00A0119438261016270BD002C01409A
:101E1000003401400004004000080040000C004075
:101E200010B5036A23F0100303628369046A23F484
:101E3000704343EA023224F0A00343EA01118261B5
:101E4000016210BD30B5046A24F010040462846994
:101E5000056A24F4407444EA022222F470444FF6E6
:101E6000FF7202EA03322243A02425F0A00304EA11
:101E7000011119438261016230BD10B500F0A8FE66
:101E8000002805D0D0E90021BDE8104008461047E1
:101E900010BD10B5406A0021C185C184FFF7F9FA71
:101EA00010BD0168CA6822F49072CA6001684A696C
:101EB00022F001024A61202180F83A10704710B5E3
:101EC00090F83A10222901D0022010BD82684FF408
:101ED00080539A4201D1016921B1816A9A421BD093
:101EE0004AB10AE00268816A5268C2F308020A80B5
:101EF000816A891C08E0026972B10268526802F0C6
:101F00007F020A70816A491C8162C18D491E0904E1
:101F1000090CC18503D016E002685268F1E7016838
:101F2000CA6822F02002CA600168CA6822F480727E
:101F3000CA6001684A6922F001024A61202180F8E2
:101F40003A10FFF7D3FB002010BD000070B5044627
:101F500000680169E26821F440511143016121697F
:101F6000A0680843616908432168CA6841F20C63AC
:101F70009A430243CA6020684169A26921F4407112
:101F8000114341611E492068884202D1FEF790FC4E
:101F900001E0FEF77DFC00EBC00101EB0012606880
:101FA00064218000B2FBF0F3B3FBF1F36FF018068D
:101FB0007343B2FBF0F5B2FBF0F605EB8305322379
:101FC00003EB0515B5FBF1F5B6FBF1F605F0F005F1
:101FD00005EB0615B2FBF0F6B2FBF0F0B0FBF1F04A
:101FE0006FF01802504306EB800003EB0010B0FBCB
:101FF000F1F0216800F00F002844886070BD0000F7
:10200000003801400148FFF745BA00004C020020AB
:10201000FEE70907090E002804DB00F1E02080F844
:102020000014704700F00F0000F1E02080F8141D4C
:10203000704702E008C8121F08C1002AFAD1704791
:102040007047002001E001C1121F002AFBD1704738
:10205000FEF7B8FAFFF75CFDFFF74CFBFFF7A8FBB4
:10206000FFF7E4FBFFF71CFCFFF754FCFFF792FCC3
:10207000FFF7D0FC1C481B490C2201604FF4E131F2
:10208000416000218160C160C0E904128161C161C9
:10209000FFF7AEFA00F050F8144800F089F8144C3D
:1020A000124B00222061103B0121124800F012F96E
:1020B0000E4AE0607C3A00210F4800F0B9F80B4A64
:1020C0002060583A00210D4800F0B2F8074A6060DD
:1020D000343A00210A4800F0ABF8A06000F048F85C
:1020E000FEE70000004800404C020020183B0008BA
:1020F000000000206F020008CD1A0008D51A000861
:10210000DD1A000810B5EFF3058149B9EFF310812E
:1021100031B908490968022905D1EFF3118111B1DC
:102120006FF0050403E0002408B100F0A5FE20468E
:1021300010BD000074000020EFF3058058B9EFF3E4
:10214000108040B909490868022801D030B109E07F
:10215000EFF3118030B16FF0050070470120086087
:10216000002070474FF0FF307047000074000020DF
:1021700010B5EFF3058060B9EFF3108048B90B4953
:102180000868022802D0012806D00BE0EFF3118086
:1021900040B16FF0050010BD0220086000F0D4FED1
:1021A000002010BD4FF0FF3010BD00007400002073
:1021B00070B505464FF00004EFF30580A0BBEFF3C8
:1021C000108088BB19480068022802D1EFF3118003
:1021D00050BB0DB1686800E00020C10701D00126A6
:1021E00000E0002600071FD46DB1D5E9021021B12F
:1021F000502819D31EB1042002E020B114E00120C0
:1022000000F07FFF05E00EB1042000E0012000F0A7
:102210006DFF040008D00DB1296800E0002100F036
:10222000F5FD0EB144F00104204670BD740000209D
:10223000F0B585B04FEA01034FF00004EFF30581DC
:102240000394A1BBEFF3108189BB214909680229DE
:1022500002D1EFF3118151BB48B3802618218DF8CC
:10226000104004AD42B3176807B13D4697691FB1EE
:1022700039467F1E382F02D21779FF0702D000207F
:1022800005B0F0BD576907B1BE08D2F808C0BCF16F
:10229000000F0DD0D4685C2C18D312693AB137B155
:1022A0008DE806103246294601F0E5F903900DE06D
:1022B000D7685FB912694AB903AACDE90012B2B270
:1022C000294601F0ABF9012800D003940398D7E721
:1022D000740000202DE9FC411C461746884606463E
:1022E0004FF00005EFF3058078BBEFF3108060BB83
:1022F00017480068022802D1EFF3118028BB26B3EB
:10230000082000F0F9FB03001FD0B8F1000FC3E96B
:10231000006711D001220F4E00208CB1216801B15D
:102320000846A16851B1E468302C0ED3CDE90061B4
:10233000012101F037FB07E00022ECE7E16821B959
:102340000121009601F014FB05462846BDE8FC81FA
:10235000740000207B1E00082DE9F041134C0F464D
:10236000054666692068001D00F056FC681C07D110
:1023700037B12168BDE8F0410D48091D00F09CBC53
:1023800020683544B5424560216805D2A068BDE8A3
:10239000F041091D00F078BC6068091D00F074FC74
:1023A000206B854200D22563BDE8F0812400002027
:1023B000C40700202DE9F041054600F089FC2D4CB2
:1023C0002069401C206120682B4F10B1E06930B3B8
:1023D0002BE025602069012827D1002606EB860026
:1023E00007EB800000F042FC761C382EF6D3234821
:1023F00000F03CFC2148143000F038FC1F48283025
:1024000000F034FC1D483C3000F030FC1B485030DC
:1024100000F02CFC194860601430A06005E02068D2
:10242000E96AC06A884200D82560E06A401CE06220
:102430006864E86AA169884200D9A06100EB800065
:1024400007EB8000291D00F037FC00F061FCE0691B
:1024500000280CD02068E96AC06A884207D208497F
:102460004FF080500860BFF34F8FBFF36F8FBDE810
:10247000F0810000240000201403002074070020D5
:1024800004ED00E038B500F023FC104CA068C8B99A
:102490000F4800F0EBFB0E48143000F0E7FB0C484F
:1024A0002060143060600A4B00202833009003F154
:1024B000500210210A2000F055FEA06010B105A1C5
:1024C00000F0A4FCBDE8384000F022BC6000002011
:1024D000D8070020546D72510000000030B4026C27
:1024E0000B46002A0BD0C1681144C1604468A14268
:1024F00001D30168C16030BC1846FDF781BE30BC15
:1025000070472DE9F041856B174604460026026CA2
:1025100082B1C7B1E068FDF773FEE168206C091A6B
:10252000E1602268914202D26168081AE060022FDD
:1025300016D017E02068A8B9606801F03FF9064698
:10254000002060600EE0A068FDF75AFE216CA068D4
:102550000844A0606168884204D32068A06001E05C
:1025600005B16D1E6D1CA5633046BDE8F08110B548
:10257000044690F8590058B101280CD002280FD019
:10258000502080F31188BFF34F8FBFF36F8FFEE7AA
:10259000206B00F0D1FB2046BDE8104000F0CCBB22
:1025A00010BD000010484FF44061420706D0C01D26
:1025B0000D4920F00700411AC1F540610B4A002384
:1025C0000144C2E900030839103A21F00701116003
:1025D0004B600B600B1AC0E9001393604FF0004092
:1025E0005360D06070470000A80F002088000020D2
:1025F000144E154CA6F29C474FF08058DFF84C90D3
:1026000012E000BF00F064FBF068C568281D00F010
:1026100003FB2069401E2061E068401EE06000F07E
:1026200077FB2846FFF7A3FFE0680028EAD1386867
:102630000128F9D9C9F80080BFF34F8FBFF36F8F1E
:10264000F2E70000B00700202400002004ED00E0C5
:10265000002807D00021416001600B460A46C16096
:1026600000F0F8BD7047000070B51D46049C51B1E4
:10267000C4F80020C4E90F010121204600F0A6FDA6
:1026800084F84C5070BD2460F4E72DE9F0470E4605
:10269000DDE909841746824691009946089DA522E6
:1026A000206BFDF7BFFD6FF00301206B01EB87018D
:1026B000084420F00707780707D0502080F31188DE
:1026C000BFF34F8FBFF36F8FFEE72218315C82F8A4
:1026D0003410315C11B1401C1028F6D3002684F868
:1026E0004360382D00D33725E562C4E91356201D19
:1026F00000F0C7FA04F1180000F0C3FA2461C5F134
:1027000038006462A061666584F858604A465146A4
:10271000384600F06FFA2060B8F1000F01D0C8F819
:102720000040BDE8F0872DE9F0471E46DDE908943A
:1027300017460D0080460ED0002C14D0FFF7A2FEE5
:10274000C4F80080C4E90657C4E90869201DBDE843
:10275000F04700F096BA502080F31188BFF34F8FF6
:10276000BFF36F8FFEE7BDE8F087000030B5114979
:1027700000E011460A688242FBD34B685C18844231
:1027800003D1406818444860084643681C189442C6
:1027900009D1084C103C2468A24209D052681A445E
:1027A00042600A6812680260814200D0086030BD51
:1027B0000460F9E78800002070B5002441600B4DEB
:1027C0000061914206D8D11A8269914206D2011D58
:1027D000686807E09A4203D2994201D3012403E0DA
:1027E000011D286800F050FA204670BD60000020EE
:1027F00010B5044600F06CFAA06B28B15FF000043D
:1028000000F086FA204610BD0124F9E730B589B002
:10281000304D55E00498002806DADDE90601059AF6
:102820009047049800284BDB069C606910B1201D7E
:1028300000F0F2F902A800F0B9F8024604980A285C
:102840003ED2DFE800F00505053D263705053D26AB
:102850000598A169034601442046FFF7ADFF00B388
:10286000616A20468847E069012829D1002000904C
:102870000598A169002342181946204601F0DAF8AC
:1028800078B9502080F31188BFF34F8FBFF36F8F5B
:10289000FEE70598A06128B1811813462046FFF78E
:1028A0008BFF0DE0502080F31188BFF34F8FBFF3F3
:1028B0006F8FFEE794F82C0010B9204600F03CFA28
:1028C000002204A9A86800F0D3FD0028A2D109B015
:1028D00030BD0000600000202DE9FC410F46054698
:1028E00000F076FB01A800F061F80446019818B1E9
:1028F00000F0DCFFBDE8FC81224EAFB170680068DB
:10290000A8B30027291B3A46B06800F093FA00F0FC
:10291000CDFF0028EED11C494FF080500860BFF376
:102920004F8FBFF36F8FE5E7A542EBD800F0BEFFF6
:1029300030682746C068C468201D00F06DF9E06962
:10294000012810D1A0692B4641193A462046FFF7CD
:1029500033FF40B100200346014600902A4620463E
:1029600001F068F820B1616A20468847C2E707E0B5
:10297000502080F31188BFF34F8FBFF36F8FFEE7B6
:102980000127BFE76000002004ED00E00648416831
:10299000096829B14168C968C96849680163704715
:1029A0004FF0FF31FAE700002400002070B5054623
:1029B00000F09AFE064E04463069844203D200F0CD
:1029C00009F8012000E0002028602046346170BD35
:1029D00060000020F8B5194D1FE0C068C4680668A3
:1029E000201D00F019F9616A20468847E069012836
:1029F00013D1A0693044B04206D924616060211D22
:102A0000286800F041F908E00020034601460090E4
:102A10003246204601F00EF838B1286801680029D6
:102A2000DBD16968C5E90010F8BD502080F311883A
:102A3000BFF34F8FBFF36F8FFEE7000060000020F1
:102A400008484068401C4FF0500080F3118804D0C3
:102A5000BFF34F8FBFF36F8FFEE7BFF34F8FBFF30F
:102A60006F8FFEE790000020074C2068016841B19D
:102A7000C0680021D0F80000FFF72EFFFFF7C6FE68
:102A8000F3E701210020F7E7600000202DE9F04185
:102A9000044600F01DF994F9455004F1240609E0BC
:102AA000606A48B1304600F0C9FE08B100F012FA81
:102AB0006D1E6DB2002DF3DC4FF0FF3684F84560DB
:102AC00000F026F900F004F994F9445004F11007DD
:102AD00009E0206948B1384600F0B0FE08B100F0C6
:102AE000F9F96D1E6DB2002DF3DC84F84460BDE889
:102AF000F04100F00DB900002DE9F0410546002736
:102B000000F066FA314E306808B9FFF74BFDF06807
:102B100005424BD1C5B3083568070ED005F0070054
:102B2000C0F108000544680707D0502080F31188E1
:102B3000BFF34F8FBFF36F8FFEE72DB370688542F1
:102B400034D82248103001460C6801E020460C467B
:102B50006168A94202D221680029F7D131688C420C
:102B600024D007682168016060680837411B10297C
:102B70000FD96019420708D0502080F31188BFF3A5
:102B80004F8FBFF36F8FFEE710E041606560FFF786
:102B9000EDFD61687068401A7060B268904200D2C2
:102BA000B060F06801430020C4E9000100F07EFE3F
:102BB000780707D0502080F31188BFF34F8FBFF301
:102BC0006F8FFEE73846BDE8F081000078000020F6
:102BD00010B5040006D000F07BF8246A00F098F8E5
:102BE000204610BD502080F31188BFF34F8FBFF3F4
:102BF0006F8FFEE710B5031F4FF080741C601B1F22
:102C000021F001011960191F024B0B601439403883
:102C10000A6010BD412A0008D0E9013201699A60BA
:102C2000D0E901235A604A68824201D182684A6031
:102C3000002202610868401E0860086870470000B2
:102C4000034B036003F15C00086080201060704754
:102C5000F0080020044B036003F15C0008604FF4AF
:102C600080701060704700004C0B002000F10801DC
:102C70004FF0FF32C0E90112C16001610021016023
:102C8000704700210161704730B50B685A1C02D0B3
:102C900000F1080202E0026904E022465468256857
:102CA0009D42FAD953684B6099608A60516008610F
:102CB0000168491C016030BD42684A6093688B60BE
:102CC00093685960916008610168491C0160704710
:102CD000502080F31188BFF34F8FBFF36F8F0A49E5
:102CE0004868401C486001280CD10848006810F072
:102CF000FF0F07D0502080F31188BFF34F8FBFF331
:102D00006F8FFEE7704700009000002004ED00E0A8
:102D10000849486828B1401E486001D180F31188F5
:102D20007047502080F31188BFF34F8FBFF36F8F30
:102D3000FEE700009000002070B5002827D0144D59
:102D4000A0F108046168E868014207D1502080F3CF
:102D50001188BFF34F8FBFF36F8FFEE722683AB140
:102D6000502080F31188BFF34F8FBFF36F8FFEE7C2
:102D70008143616000F02CF960686968084468600C
:102D80002046FFF7F3FCBDE8704000F08FBD70BD3A
:102D9000780000204FF0E0200021016181610549A9
:102DA0004FF47A720968B1FBF2F1491E41610721C3
:102DB000016170472000002010B5FDF70BFA1149A2
:102DC00010280ED300F1E02090F8F0030A7890422A
:102DD00007D2502080F31188BFF34F8FBFF36F8F5E
:102DE000FEE709480068896800F4E060884207D976
:102DF000502080F31188BFF34F8FBFF36F8FFEE732
:102E000010BD0000900000200CED00E010B5084B54
:102E1000002200BF53F832401CB1521C082AF9D3DB
:102E200010BD43F8321003EBC201486010BD000032
:102E3000D402002070B515460E460446FFF748FF41
:102E400094F944100020491C01D184F8440094F9FD
:102E50004510491C01D184F84500FFF759FFA06BCC
:102E600028B92A46314604F1240000F051F82046E2
:102E7000BDE87040FFF70ABE10B5020014D00F483D
:102E8000806B38B1502080F31188BFF34F8FBFF3B0
:102E90006F8FFEE700F09CF800211046FFF75CFA08
:102EA00000F004FD002807D105494FF0805008606C
:102EB000BFF34F8FBFF36F8F10BD000024000020C1
:102EC00004ED00E002498A6A026049694160704786
:102ED000240000200149012048627047240000209E
:102EE00010B50C4650B1094909681831FFF7CCFEFE
:102EF0002046BDE810400121FFF72EBA502080F394
:102F00001188BFF34F8FBFF36F8FFEE724000020BF
:102F100070B514460D4668B10A4909681831FFF7C3
:102F2000CBFE0CB14FF0FF3521462846BDE870407E
:102F3000FFF712BA502080F31188BFF34F8FBFF311
:102F40006F8FFEE72400002030B587B00024039483
:102F500005AA04A903A80494FFF772FEDDE90301A2
:102F60000094CDE90110002315A11748059A00F03F
:102F700082FB164D002868631FD000F02BFD01284E
:102F800009D0401C19D1502080F31188BFF34F8F16
:102F9000BFF36F8FFEE7502080F31188BFF34F8F90
:102FA000BFF36F8F4FF0FF3028630120E8616C6141
:102FB00007B0BDE8304000F045B807B030BD0000B4
:102FC00049444C4500000000F12500082400002081
:102FD0000248816B491C8163704700002400002077
:102FE000164810B5816B11B10121416210BD00215D
:102FF00041628169124A01E0B9B1491E01EB8103C6
:1030000052F82330002BF7D001EB810302EB83024F
:1030100002F1080453685B685360A34201D15B6806
:103020005360DA680260816110BD502080F311881E
:10303000BFF34F8FBFF36F8FFEE700002400002027
:10304000140300201CB5264908780190FF20087061
:1030500008788DF800009DF800009DF8002000F031
:10306000F000904207D0502080F31188BFF34F8FBB
:10307000BFF36F8FFEE79DF800001A4B00F0500081
:1030800018700720986005E09DF8002052008DF828
:103090000020401E9DF800201206F5D498600328F9
:1030A00007D0502080F31188BFF34F8FBFF36F8F8D
:1030B000FEE74FF440709860019808700A48016874
:1030C00041F470010160016841F070410160FFF757
:1030D00061FE00205860FDF747F800201CBD00008D
:1030E00000E400E09000002020ED00E010B5024672
:1030F0000021012000F012F80446FFF7A9FA20464B
:1031000010BD38B50B46002200901146012000F09A
:1031100029F80446FFF79CFA204638BDF8B5174653
:103120000E46050014D0DEB105FB06F05030FFF767
:10313000E3FC04000AD0002084F8460004F15002A9
:103140003B46314628460094FFF78EFA2046F8BDEC
:10315000502080F31188BFF34F8FBFF36F8FFEE7CE
:103160000020E3E738B5049D18B153B1CAB181B16D
:1031700020E0502080F31188BFF34F8FBFF36F8F93
:10318000FEE7502080F31188BFF34F8FBFF36F8F9E
:10319000FEE7502080F31188BFF34F8FBFF36F8F8E
:1031A000FEE739B1502080F31188BFF34F8FBFF392
:1031B0006F8FFEE750241C46012384F846302B46CF
:1031C0000094FFF751FA204638BD000070B50D4657
:1031D000040025D0FFF77CFDD4E90F20216802FB15
:1031E000001161600021A1632168A1600A46D4E951
:1031F0000F01401E00FB0121E16021464FF0FF302E
:1032000001F8440F487004F110008DB1FFF72EFD56
:1032100004F12400FFF72AFDFFF77AFD012070BDBD
:10322000502080F31188BFF34F8FBFF36F8FFEE7FD
:1032300021690029F0D000F001FB0028ECD00449FE
:103240004FF080500860BFF34F8FBFF36F8FE3E7FD
:1032500004ED00E02DE9FF4782B01D468A464FF09D
:103260000008040003D0BAF1000F08D011E050208C
:1032700080F31188BFF34F8FBFF36F8FFEE7206C91
:1032800038B1502080F31188BFF34F8FBFF36F8F99
:10329000FEE7022D0AD1E06B012807D0502080F311
:1032A0001188BFF34F8FBFF36F8FFEE700F00EFA68
:1032B0003F4F4FF000094FF0805648B9049838B19D
:1032C000502080F31188BFF34F8FBFF36F8FFEE75D
:1032D000FFF7FEFCA06BE16B884207D3022D05D0FF
:1032E0000498D0B1B8F1000F1AD01EE02A4651461A
:1032F0002046FFF706F9616A19B104F1240000F0D5
:103300009DFA20B13E60BFF34F8FBFF36F8FFFF781
:10331000FFFC012006B0BDE8F087FFF7F9FC22E0D2
:103320006846FFF7CFFD4FF00108FFF7F1FCFFF70C
:103330004FFEFFF7CDFC94F94400401C01D184F806
:10334000449094F94500401C01D184F84590FFF762
:10335000DFFC04A9684600F027F930B12046FFF7EA
:1033600095FB00F0A3FA0020D4E7FFF7B1FCA06BB7
:10337000E16B884213D1FFF7CBFC04F110000499F4
:10338000FFF7AEFD2046FFF781FB00F08FFA002823
:103390009ED13E60BFF34F8FBFF36F8F98E7FFF76B
:1033A000B7FC2046FFF772FB00F080FA90E70000C0
:1033B00004ED00E02DE9F0471F46904689460400E1
:1033C00003D0B9F1000F08D011E0502080F311882C
:1033D000BFF34F8FBFF36F8FFEE7206C38B15020E3
:1033E00080F31188BFF34F8FBFF36F8FFEE7022F7B
:1033F0000AD1E06B012807D0502080F31188BFF379
:103400004F8FBFF36F8FFEE7FFF7D6FC5020EFF32F
:10341000118680F31188BFF34F8FBFF36F8FA06BBE
:10342000E16B884206D3022F04D0002086F3118876
:10343000BDE8F08794F945503A4649462046FFF7E3
:1034400060F8681C04D06D1C84F845500120EDE73D
:10345000606A0028FAD004F1240000F0EFF9002897
:10346000F4D0B8F1000FF1D00121C8F80010EDE759
:103470002DE9F747002683B08A46040003D0BAF14D
:10348000000F08D011E0502080F31188BFF34F8F58
:10349000BFF36F8FFEE7206C38B1502080F31188A6
:1034A000BFF34F8FBFF36F8FFEE700F00FF9DFF828
:1034B000F4804FF000094FF0805748B9059838B1B3
:1034C000502080F31188BFF34F8FBFF36F8FFEE75B
:1034D000FFF7FEFBA56BC5B151462046FEF7FEFF88
:1034E0006D1EA563206950B104F1100000F0A6F92B
:1034F00028B1C8F80070BFF34F8FBFF36F8FFFF78D
:1035000007FC012006B0BDE8F087059808B11EB1A0
:1035100006E0FFF7FDFB27E06846FFF7D3FC012636
:10352000FFF7F6FBFFF754FDFFF7D2FB94F94400D9
:10353000401C01D184F8449094F94500401C01D10D
:1035400084F84590FFF7E4FB05A9684600F02CF8E5
:10355000002820460AD0FFF799FA00F0A7F9204684
:10356000FFF746F90028B3D00020CBE7FFF740F97A
:1035700090B104F124000599FFF7B2FC2046FFF753
:1035800085FA00F093F90028A2D1C8F80070BFF3C3
:103590004F8FBFF36F8F9BE72046FFF777FA00F05E
:1035A00085F995E704ED00E02DE9F0410C460500B2
:1035B00011D0C4B1FFF78CFB174B5A696E682068B5
:1035C000911B471C17D02F689B6A9F4219D09642C7
:1035D00017D8012410E0502080F31188BFF34F8FDB
:1035E000BFF36F8FFEE7502080F31188BFF34F8F3A
:1035F000BFF36F8FFEE70024FFF78AFB2046BDE88C
:10360000F081884205D9401A20602846FFF75AFC0D
:10361000F1E700202060DCE7240000202DE9FF5FB7
:103620008346DDE90E87994616468A469000FFF7E5
:1036300063FA05001CD05C20FFF75EFA040014D08A
:103640000020256384F85900CDE90240CDE90087C8
:103650004B46324651465846FFF717F82046FEF7CC
:10366000A9FE012004B0BDE8F09F2846FFF764FBE7
:103670004FF0FF30F6E7F0B585B0DDE90B640A9D49
:10368000A6B1DCB15C2700972663022684F8596056
:10369000002604AFCDE90246CDE90057FEF7F5FF5D
:1036A0002046FEF787FE049805B0F0BD502080F359
:1036B0001188BFF34F8FBFF36F8FFEE7502080F369
:1036C0001188BFF34F8FBFF36F8FFEE70548C169C5
:1036D00019B1806B18B1002070470120704702209B
:1036E0007047000024000020014840697047000036
:1036F000240000202DE9F0412E4C0027A06B40B1A2
:10370000206A401C2062606A00B101273846BDE88B
:10371000F0816669761C666113D16068006838B113
:10372000502080F31188BFF34F8FBFF36F8FFEE7F8
:103730006068A1686160A060A06A401CA062FFF799
:1037400025F9206BDFF87080864209D36068006835
:1037500080B16068C068C568686886420DD2206321
:103760002068C06A00EB800158F821000128CAD9FE
:103770000127C8E74FF0FF30F1E7281DFFF74CFAAB
:10378000A86A18B105F11800FFF746FAE86AA169BE
:10379000884200D9A06100EB800108EB8100291D5F
:1037A000FFF78AFAE86A2168C96A8842CED30127FE
:1037B000CCE70000240000201403002070B50400B2
:1037C0004FF0000133D01B4D2868844207D05020B1
:1037D00080F31188BFF34F8FBFF36F8FFEE7206D2B
:1037E00038B1401E2065E36CE26A9A421FD040B1B6
:1037F0001DE0502080F31188BFF34F8FBFF36F8F10
:10380000FEE7201DFFF708FAE06CE062C0F1380027
:10381000A061E06AA969884200D9A861064900EB65
:10382000800001EB8000211DFFF746FA01210846C8
:1038300070BD0000240000201403002070B5C06893
:10384000C46854B104F118000646FFF7E5F9144DB9
:10385000A86B50B13146134815E0502080F3118811
:10386000BFF34F8FBFF36F8FFEE7201DFFF7D4F933
:10387000E06AA969884200D9A8610B4900EB800081
:1038800001EB8000211DFFF717FAE06A2968C96A79
:10389000884202D90120686270BD002070BD00001E
:1038A000240000209C070020140300202DE9F0478D
:1038B0002C4D00242746A86B38B1FFF709FAA86BF6
:1038C000401EA863A86B40B146E0502080F31188E9
:1038D000BFF34F8FBFF36F8FFEE72969224E0120A0
:1038E000D1B3A6F5916980463068E0B1F068C4684C
:1038F00004F11800FFF790F9201DFFF78DF9E06A39
:10390000A969884200D9A86100EB800109EB810018
:10391000211DFFF7D1F9E06A2968C96A8842E3D31B
:10392000C5F82480E0E70CB1FFF730F82C6A4CB101
:103930004FEA0806FFF7DEFE00B16E62641EF9D1A1
:1039400000202862686A38B10849012738070860F2
:10395000BFF34F8FBFF36F8FFFF7DAF93846BDE83B
:10396000F0870000240000209C07002004ED00E008
:103970002DE9FC4781461E461746884630200A9DA1
:10398000FFF7BAF804000AD0CDE9005433463A46AE
:1039900041464846FEF7C7FE002084F82C0020462A
:1039A000BDE8FC877CB53026DDE90654009644B1BD
:1039B000CDE90054FEF7B7FE012084F82C00204624
:1039C0007CBD502080F31188BFF34F8FBFF36F8F02
:1039D000FEE7000010B586B0FEF754FD114CA0685C
:1039E000B8B100200390049005AA04A903A8FFF72A
:1039F00031F9DDE9032102208DE8070000230AA147
:103A00000B48059AFFF737FEE06010B106B00120C1
:103A100010BD502080F31188BFF34F8FBFF36F8F1D
:103A2000FEE7000060000020546D722053766300B2
:103A3000692A00082DE9FF411E46134602000A9D2F
:103A40004FF0000016D0144CA768002F0FD0CDE91E
:103A500000130292062917DAFFF738FE02284FF00A
:103A600000030FD000226946A068FFF7F3FB04B003
:103A7000BDE8F081502080F31188BFF34F8FBFF372
:103A80006F8FFEE72A46EEE7002332466946384646
:103A9000FFF790FCEBE7000060000020703B00089F
:103AA0000000000000000000000000000000000016
:103AB00000020000180000000000000000000000EC
:103AC000583B00080000000000000000000000005B
:103AD00000000000000200000800000000000000DC
:103AE00000000000643B000800000000000000002F
:103AF00000000000000000000002000008000000BC
:103B00000000000000000000403B00080000000032
:103B100000000000000000004C3B00080000000016
:103B20000000000000000000000000000000000095
:103B30000102030406070809000000000102030453
:103B40006D7954696D657230310000006D794D7585
:103B500074657830310000006D795461736B3032D8
:103B6000000000006D795461736B30330000000079
:103B700064656661756C745461736B009C3B0008EE
:103B8000000000209C00000032200008383C0008A3
:103B90009C0000200C1F00004220000800000000D4
:103BA0000000000000000000000000000000000015
:103BB0000100000010000000000000000024F400DC
:103BC00000000000000000000000000000000000F5
:103BD00000000000000000000000000000000000E5
:103BE00000000000000000000000000000000000D5
:103BF00000000000000000000000000000000000C5
:103C000000000000000000000000000000000000B4
:103C100000000000000000000000000000000000A4
:103C20000000000000000000000000000000000094
:083C3000AAAAAAAA00000000E4
:0400000508000131BD
:00000001FF
